:100000000C9427010C944B010C944B010C944B0164
:100010000C944B010C944B010C944B010C944B0130
:100020000C944B010C944B010C944B010C944B0120
:100030000C944B010C944B010C944B010C944B0110
:100040000C944B010C944B010C944B010C944B0100
:100050000C944B010C944B010C944B010C94B40187
:100060000C944B010C944B010C944B010C944B01E0
:100070000C944B010C944B010C944B010C944B01D0
:100080000C944B010C944B010C944B010C944B01C0
:100090000C944B010C944B010C944B010C944B01B0
:1000A0000C944B010C944B010C944B010C944B01A0
:1000B0000C944B010C944B010C944B010C944B0190
:1000C0000C944B010C944B010C944B010C944B0180
:1000D0000C944B010C944B010C944B010C944B0170
:1000E0000C944B010C9480010C9486010C949801A3
:1000F0000C946B010C948A010C94AC010C94790162
:100100000C947D010C949E010C94B0010C9412038C
:100110000C94A2010C94A6010C94AB010C949401D4
:100120000C9490010C9475010C9471010000210055
:10013000240027002A002D003000330001010000B8
:10014000040107010A0100002200250028002B00FD
:100150002E003100340002010000050108010B01EE
:10016000000020002300260029002C002F00320070
:100170000001000003010601090105050505070549
:1001800008080808020202020A0A08080404040413
:10019000010101010101010103030303030303033F
:1001A000040707070C0C0C0C0C0C0C0C02020202CE
:1001B00006060606060606060B0B0B0B0B0B0B0BB7
:1001C0000102102020080810204010204080020169
:1001D000020108040201010204081020408080404E
:1001E000201008040201800402018040201008044D
:1001F00002010804020101020408102040800102EB
:1002000004081020408000000A0B02090C0D0E08A3
:1002100007030401000000000000000000000000CF
:1002200000000000000000000000000000000000CE
:10023000000012111000000000000000000000008B
:100240000000000000000000000000001203112464
:100250001FBECFEFD1E2DEBFCDBF00E00CBF22E07A
:10026000A0E0B2E001C01D92A833B207E1F711E0AF
:10027000C7E2D1E000E006C021970109802FFE010E
:100280000E946B03C632D10780E00807A9F70E94DD
:100290002F020C9473030C9400008150823108F0FB
:1002A0005AC0E82FF0E08827E75AFE4F8F4F0C9492
:1002B0006B0379017D016B0171017501AB01800157
:1002C00086018A019001940198019E01A201AB016F
:1002D000A601AC01B001809180008F7780938000EF
:1002E0000895809180008F7DF9CF80918000877F75
:1002F000F5CF84B58F7784BD089584B58F7DFBCF0E
:100300008091B0008F778093B00008958091B00005
:100310008F7DF9CF809190008F7780939000089522
:10032000809190008F7DF9CF80919000877FF5CFED
:100330008091A0008F778093A00008958091A00005
:100340008F7DF9CF8091A000877FF5CF809120012C
:100350008F77809320010895809120018F7DF9CFC0
:1003600080912001877FF5CF1F920F920FB60F92D9
:1003700011242F933F938F939F93AF93BF938091BB
:10038000340290913502A0913602B091370230913B
:10039000330223E0230F2D3758F50196A11DB11D1F
:1003A000209333028093340290933502A093360257
:1003B000B093370280912F0290913002A0913102C8
:1003C000B09132020196A11DB11D80932F0290932E
:1003D0003002A0933102B0933202BF91AF919F914E
:1003E0008F913F912F910F900FBE0F901F901895F6
:1003F00026E8230F0296A11DB11DD2CFCF93DF9324
:1004000090E0FC01E054FE4F249186589E4FFC0181
:1004100084918823D1F090E0880F991FFC01E45D5E
:10042000FE4FA591B491FC01EA5BFE4FC591D491BA
:1004300061110EC09FB7F8948C91E22FE0958E2346
:100440008C932881E223E8839FBFDF91CF910895A9
:100450008FB7F894EC91E22BEC938FBFF6CF7894A2
:1004600084B5826084BD84B5816084BD85B58260B9
:1004700085BD85B5816085BD80916E00816080936A
:100480006E001092810080918100826080938100D3
:1004900080918100816080938100809180008160E3
:1004A000809380008091B10084608093B10080913E
:1004B000B00081608093B000809191008260809351
:1004C00091008091910081608093910080919000D3
:1004D0008160809390008091A10082608093A10050
:1004E0008091A10081608093A1008091A000816033
:1004F0008093A000809121018260809321018091EE
:10050000210181608093210180912001816080938D
:10051000200180917A00846080937A0080917A0033
:10052000826080937A0080917A00816080937A0063
:1005300080917A00806880937A001092C10030E048
:10054000E32E30E0F32E20E0C22E22E0D22E10E087
:1005500000E0F601C281D381A4802081318133275C
:10056000F901EA5FFD4F8491F901E054FE4FB49028
:10057000F901E658FE4F9490992009F446C0811184
:100580000E944D01E92DF0E0EE0FFF1FE05AFE4FF3
:10059000A591B491EC91BE2231E020E009F430E065
:1005A000832F922F282F21702A1509F431C0892B0F
:1005B00079F19E013327F901EA5FFD4F8491F9013A
:1005C000E054FE4FD491F901E658FE4FC491CC237C
:1005D00089F081110E944D01EC2FF0E0EE0FFF1F1A
:1005E000EA5BFE4FA591B4918FB7F894EC91DE2BA6
:1005F000DC938FBF10932E0200932D02E114F104BF
:1006000009F4A1CF0E9400009ECF90E080E0CACF05
:100610000F5F1F4FF5E0CF0ED11C0530110509F01B
:1006200098CFECCFCF93DF93C0E0D2E086E190E0AB
:100630009983888387E190E09E838D8388E190E0B1
:100640009B878A8789E190E0988B8F878AE190E089
:100650009D8B8C8B60E086E10E94FE0160E08D81C5
:100660000E94FE0160E08A850E94FE0160E08F85A5
:100670000E94FE0160E08C890E94FE018CE190E006
:100680009B838A838DE190E098878F838EE190E051
:100690009D878C878FE190E09A8B898B80E290E038
:1006A0009F8B8E8B61E08CE10E94FE0161E08F8167
:1006B0000E94FE0161E08C850E94FE0161E0898953
:1006C0000E94FE0161E08E890E94FE011EA61DA609
:1006D000DF91CF910895EE0FFF1F881F8BBF07900A
:0A06E000F691E02D1994F894FFCF75
:00000001FF
